{"abi":[{"type":"function","name":"getERC1155RewardMultiplier","inputs":[{"name":"user","type":"address","internalType":"address"},{"name":"tokenId","type":"uint256","internalType":"uint256"}],"outputs":[{"name":"","type":"uint256","internalType":"uint256"}],"stateMutability":"view"},{"type":"function","name":"getStakedERC1155","inputs":[{"name":"user","type":"address","internalType":"address"},{"name":"tokenId","type":"uint256","internalType":"uint256"}],"outputs":[{"name":"","type":"uint256","internalType":"uint256"}],"stateMutability":"view"},{"type":"function","name":"stakeERC1155","inputs":[{"name":"token","type":"address","internalType":"address"},{"name":"tokenId","type":"uint256","internalType":"uint256"},{"name":"amount","type":"uint256","internalType":"uint256"}],"outputs":[],"stateMutability":"nonpayable"},{"type":"function","name":"unstakeERC1155","inputs":[{"name":"token","type":"address","internalType":"address"},{"name":"tokenId","type":"uint256","internalType":"uint256"},{"name":"amount","type":"uint256","internalType":"uint256"}],"outputs":[],"stateMutability":"nonpayable"},{"type":"event","name":"Staked","inputs":[{"name":"user","type":"address","indexed":true,"internalType":"address"},{"name":"token","type":"address","indexed":true,"internalType":"address"},{"name":"tokenId","type":"uint256","indexed":true,"internalType":"uint256"},{"name":"amount","type":"uint256","indexed":false,"internalType":"uint256"}],"anonymous":false},{"type":"event","name":"Unstaked","inputs":[{"name":"user","type":"address","indexed":true,"internalType":"address"},{"name":"token","type":"address","indexed":true,"internalType":"address"},{"name":"tokenId","type":"uint256","indexed":true,"internalType":"uint256"},{"name":"amount","type":"uint256","indexed":false,"internalType":"uint256"}],"anonymous":false}],"bytecode":{"object":"0x6080604052348015600e575f5ffd5b506109fc8061001c5f395ff3fe608060405234801561000f575f5ffd5b506004361061004a575f3560e01c8063462dc5981461004e5780638875a2211461007e578063b0fe4a7e146100ae578063c63abdab146100ca575b5f5ffd5b61006860048036038101906100639190610705565b6100e6565b6040516100759190610752565b60405180910390f35b61009860048036038101906100939190610705565b61014a565b6040516100a59190610752565b60405180910390f35b6100c860048036038101906100c3919061076b565b6101ff565b005b6100e460048036038101906100df919061076b565b61043a565b005b5f5f6100f061066d565b9050806002015f8573ffffffffffffffffffffffffffffffffffffffff1673ffffffffffffffffffffffffffffffffffffffff1681526020019081526020015f205f8481526020019081526020015f205491505092915050565b5f5f61015461066d565b90505f816002015f8673ffffffffffffffffffffffffffffffffffffffff1673ffffffffffffffffffffffffffffffffffffffff1681526020019081526020015f205f8581526020019081526020015f205490505f81036101b9575f925050506101f9565b600a81106101cc57601e925050506101f9565b600581106101df576014925050506101f9565b600381106101f257600a925050506101f9565b6005925050505b92915050565b5f61020861066d565b90505f821161024c576040517f08c379a000000000000000000000000000000000000000000000000000000000815260040161024390610815565b60405180910390fd5b5f816002015f3373ffffffffffffffffffffffffffffffffffffffff1673ffffffffffffffffffffffffffffffffffffffff1681526020019081526020015f205f8581526020019081526020015f205411156102fe573073ffffffffffffffffffffffffffffffffffffffff1663372500ab6040518163ffffffff1660e01b81526004015f604051808303815f87803b1580156102e7575f5ffd5b505af11580156102f9573d5f5f3e3d5ffd5b505050505b8373ffffffffffffffffffffffffffffffffffffffff1663f242432a333086866040518563ffffffff1660e01b815260040161033d9493929190610875565b5f604051808303815f87803b158015610354575f5ffd5b505af1158015610366573d5f5f3e3d5ffd5b5050505081816002015f3373ffffffffffffffffffffffffffffffffffffffff1673ffffffffffffffffffffffffffffffffffffffff1681526020019081526020015f205f8581526020019081526020015f205f8282546103c791906108f8565b92505081905550828473ffffffffffffffffffffffffffffffffffffffff163373ffffffffffffffffffffffffffffffffffffffff167f6c86f3fd5118b3aa8bb4f389a617046de0a3d3d477de1a1673d227f802f616dc8560405161042c9190610752565b60405180910390a450505050565b5f61044361066d565b905081816002015f3373ffffffffffffffffffffffffffffffffffffffff1673ffffffffffffffffffffffffffffffffffffffff1681526020019081526020015f205f8581526020019081526020015f205410156104d6576040517f08c379a00000000000000000000000000000000000000000000000000000000081526004016104cd90610975565b60405180910390fd5b3073ffffffffffffffffffffffffffffffffffffffff1663372500ab6040518163ffffffff1660e01b81526004015f604051808303815f87803b15801561051b575f5ffd5b505af115801561052d573d5f5f3e3d5ffd5b5050505081816002015f3373ffffffffffffffffffffffffffffffffffffffff1673ffffffffffffffffffffffffffffffffffffffff1681526020019081526020015f205f8581526020019081526020015f205f82825461058e9190610993565b925050819055508373ffffffffffffffffffffffffffffffffffffffff1663f242432a303386866040518563ffffffff1660e01b81526004016105d49493929190610875565b5f604051808303815f87803b1580156105eb575f5ffd5b505af11580156105fd573d5f5f3e3d5ffd5b50505050828473ffffffffffffffffffffffffffffffffffffffff163373ffffffffffffffffffffffffffffffffffffffff167f06cc7e90b4f2b554a9614b0caa84f909f3498c820ae47c731f490c28c07f7d3b8560405161065f9190610752565b60405180910390a450505050565b5f5f905090565b5f5ffd5b5f73ffffffffffffffffffffffffffffffffffffffff82169050919050565b5f6106a182610678565b9050919050565b6106b181610697565b81146106bb575f5ffd5b50565b5f813590506106cc816106a8565b92915050565b5f819050919050565b6106e4816106d2565b81146106ee575f5ffd5b50565b5f813590506106ff816106db565b92915050565b5f5f6040838503121561071b5761071a610674565b5b5f610728858286016106be565b9250506020610739858286016106f1565b9150509250929050565b61074c816106d2565b82525050565b5f6020820190506107655f830184610743565b92915050565b5f5f5f6060848603121561078257610781610674565b5b5f61078f868287016106be565b93505060206107a0868287016106f1565b92505060406107b1868287016106f1565b9150509250925092565b5f82825260208201905092915050565b7f43616e6e6f74207374616b65207a65726f20746f6b656e7300000000000000005f82015250565b5f6107ff6018836107bb565b915061080a826107cb565b602082019050919050565b5f6020820190508181035f83015261082c816107f3565b9050919050565b61083c81610697565b82525050565b5f82825260208201905092915050565b50565b5f6108605f83610842565b915061086b82610852565b5f82019050919050565b5f60a0820190506108885f830187610833565b6108956020830186610833565b6108a26040830185610743565b6108af6060830184610743565b81810360808301526108c081610855565b905095945050505050565b7f4e487b71000000000000000000000000000000000000000000000000000000005f52601160045260245ffd5b5f610902826106d2565b915061090d836106d2565b9250828201905080821115610925576109246108cb565b5b92915050565b7f4e6f7420656e6f75676820746f6b656e73207374616b656400000000000000005f82015250565b5f61095f6018836107bb565b915061096a8261092b565b602082019050919050565b5f6020820190508181035f83015261098c81610953565b9050919050565b5f61099d826106d2565b91506109a8836106d2565b92508282039050818111156109c0576109bf6108cb565b5b9291505056fea2646970667358221220eaf1ed39345ca785d1fb67e896a62bb02ce3c863775cad1138d0d1645e158dec64736f6c634300081c0033","linkReferences":{}},"methodIdentifiers":{"getERC1155RewardMultiplier(address,uint256)":"8875a221","getStakedERC1155(address,uint256)":"462dc598","stakeERC1155(address,uint256,uint256)":"b0fe4a7e","unstakeERC1155(address,uint256,uint256)":"c63abdab"},"id":4}