{"abi":[{"type":"function","name":"getERC1155RewardMultiplier","inputs":[{"name":"user","type":"address","internalType":"address"},{"name":"tokenId","type":"uint256","internalType":"uint256"}],"outputs":[{"name":"","type":"uint256","internalType":"uint256"}],"stateMutability":"view"},{"type":"function","name":"getStakedERC1155","inputs":[{"name":"user","type":"address","internalType":"address"},{"name":"tokenId","type":"uint256","internalType":"uint256"}],"outputs":[{"name":"","type":"uint256","internalType":"uint256"}],"stateMutability":"view"},{"type":"function","name":"setStakingContractAddress","inputs":[{"name":"stakingContract","type":"address","internalType":"address"}],"outputs":[],"stateMutability":"nonpayable"},{"type":"function","name":"stakeERC1155","inputs":[{"name":"token","type":"address","internalType":"address"},{"name":"tokenId","type":"uint256","internalType":"uint256"},{"name":"amount","type":"uint256","internalType":"uint256"}],"outputs":[],"stateMutability":"nonpayable"},{"type":"function","name":"stakingContractAddress","inputs":[],"outputs":[{"name":"","type":"address","internalType":"address"}],"stateMutability":"view"},{"type":"function","name":"unstakeERC1155","inputs":[{"name":"token","type":"address","internalType":"address"},{"name":"tokenId","type":"uint256","internalType":"uint256"},{"name":"amount","type":"uint256","internalType":"uint256"}],"outputs":[],"stateMutability":"nonpayable"},{"type":"event","name":"Staked","inputs":[{"name":"user","type":"address","indexed":true,"internalType":"address"},{"name":"token","type":"address","indexed":true,"internalType":"address"},{"name":"tokenId","type":"uint256","indexed":true,"internalType":"uint256"},{"name":"amount","type":"uint256","indexed":false,"internalType":"uint256"}],"anonymous":false},{"type":"event","name":"Unstaked","inputs":[{"name":"user","type":"address","indexed":true,"internalType":"address"},{"name":"token","type":"address","indexed":true,"internalType":"address"},{"name":"tokenId","type":"uint256","indexed":true,"internalType":"uint256"},{"name":"amount","type":"uint256","indexed":false,"internalType":"uint256"}],"anonymous":false}],"bytecode":{"object":"0x6080604052348015600e575f5ffd5b50610b368061001c5f395ff3fe608060405234801561000f575f5ffd5b5060043610610060575f3560e01c80631c1f8aa3146100645780633535f48b14610080578063462dc5981461009e5780638875a221146100ce578063b0fe4a7e146100fe578063c63abdab1461011a575b5f5ffd5b61007e600480360381019061007991906107c8565b610136565b005b610088610178565b6040516100959190610802565b60405180910390f35b6100b860048036038101906100b3919061084e565b61019c565b6040516100c5919061089b565b60405180910390f35b6100e860048036038101906100e3919061084e565b610200565b6040516100f5919061089b565b60405180910390f35b610118600480360381019061011391906108b4565b6102b5565b005b610134600480360381019061012f91906108b4565b610510565b005b805f5f6101000a81548173ffffffffffffffffffffffffffffffffffffffff021916908373ffffffffffffffffffffffffffffffffffffffff16021790555050565b5f5f9054906101000a900473ffffffffffffffffffffffffffffffffffffffff1681565b5f5f6101a6610763565b9050806002015f8573ffffffffffffffffffffffffffffffffffffffff1673ffffffffffffffffffffffffffffffffffffffff1681526020019081526020015f205f8481526020019081526020015f205491505092915050565b5f5f61020a610763565b90505f816002015f8673ffffffffffffffffffffffffffffffffffffffff1673ffffffffffffffffffffffffffffffffffffffff1681526020019081526020015f205f8581526020019081526020015f205490505f810361026f575f925050506102af565b600a811061028257601e925050506102af565b60058110610295576014925050506102af565b600381106102a857600a925050506102af565b6005925050505b92915050565b5f6102be610763565b90505f8211610302576040517f08c379a00000000000000000000000000000000000000000000000000000000081526004016102f99061095e565b60405180910390fd5b5f816002015f3373ffffffffffffffffffffffffffffffffffffffff1673ffffffffffffffffffffffffffffffffffffffff1681526020019081526020015f205f8581526020019081526020015f205411156103d4575f5f9054906101000a900473ffffffffffffffffffffffffffffffffffffffff1673ffffffffffffffffffffffffffffffffffffffff1663372500ab6040518163ffffffff1660e01b81526004015f604051808303815f87803b1580156103bd575f5ffd5b505af11580156103cf573d5f5f3e3d5ffd5b505050505b8373ffffffffffffffffffffffffffffffffffffffff1663f242432a333086866040518563ffffffff1660e01b815260040161041394939291906109af565b5f604051808303815f87803b15801561042a575f5ffd5b505af115801561043c573d5f5f3e3d5ffd5b5050505081816002015f3373ffffffffffffffffffffffffffffffffffffffff1673ffffffffffffffffffffffffffffffffffffffff1681526020019081526020015f205f8581526020019081526020015f205f82825461049d9190610a32565b92505081905550828473ffffffffffffffffffffffffffffffffffffffff163373ffffffffffffffffffffffffffffffffffffffff167f6c86f3fd5118b3aa8bb4f389a617046de0a3d3d477de1a1673d227f802f616dc85604051610502919061089b565b60405180910390a450505050565b5f610519610763565b905081816002015f3373ffffffffffffffffffffffffffffffffffffffff1673ffffffffffffffffffffffffffffffffffffffff1681526020019081526020015f205f8581526020019081526020015f205410156105ac576040517f08c379a00000000000000000000000000000000000000000000000000000000081526004016105a390610aaf565b60405180910390fd5b5f5f9054906101000a900473ffffffffffffffffffffffffffffffffffffffff1673ffffffffffffffffffffffffffffffffffffffff1663372500ab6040518163ffffffff1660e01b81526004015f604051808303815f87803b158015610611575f5ffd5b505af1158015610623573d5f5f3e3d5ffd5b5050505081816002015f3373ffffffffffffffffffffffffffffffffffffffff1673ffffffffffffffffffffffffffffffffffffffff1681526020019081526020015f205f8581526020019081526020015f205f8282546106849190610acd565b925050819055508373ffffffffffffffffffffffffffffffffffffffff1663f242432a303386866040518563ffffffff1660e01b81526004016106ca94939291906109af565b5f604051808303815f87803b1580156106e1575f5ffd5b505af11580156106f3573d5f5f3e3d5ffd5b50505050828473ffffffffffffffffffffffffffffffffffffffff163373ffffffffffffffffffffffffffffffffffffffff167f06cc7e90b4f2b554a9614b0caa84f909f3498c820ae47c731f490c28c07f7d3b85604051610755919061089b565b60405180910390a450505050565b5f5f905090565b5f5ffd5b5f73ffffffffffffffffffffffffffffffffffffffff82169050919050565b5f6107978261076e565b9050919050565b6107a78161078d565b81146107b1575f5ffd5b50565b5f813590506107c28161079e565b92915050565b5f602082840312156107dd576107dc61076a565b5b5f6107ea848285016107b4565b91505092915050565b6107fc8161078d565b82525050565b5f6020820190506108155f8301846107f3565b92915050565b5f819050919050565b61082d8161081b565b8114610837575f5ffd5b50565b5f8135905061084881610824565b92915050565b5f5f604083850312156108645761086361076a565b5b5f610871858286016107b4565b92505060206108828582860161083a565b9150509250929050565b6108958161081b565b82525050565b5f6020820190506108ae5f83018461088c565b92915050565b5f5f5f606084860312156108cb576108ca61076a565b5b5f6108d8868287016107b4565b93505060206108e98682870161083a565b92505060406108fa8682870161083a565b9150509250925092565b5f82825260208201905092915050565b7f43616e6e6f74207374616b65207a65726f20746f6b656e7300000000000000005f82015250565b5f610948601883610904565b915061095382610914565b602082019050919050565b5f6020820190508181035f8301526109758161093c565b9050919050565b5f82825260208201905092915050565b50565b5f61099a5f8361097c565b91506109a58261098c565b5f82019050919050565b5f60a0820190506109c25f8301876107f3565b6109cf60208301866107f3565b6109dc604083018561088c565b6109e9606083018461088c565b81810360808301526109fa8161098f565b905095945050505050565b7f4e487b71000000000000000000000000000000000000000000000000000000005f52601160045260245ffd5b5f610a3c8261081b565b9150610a478361081b565b9250828201905080821115610a5f57610a5e610a05565b5b92915050565b7f4e6f7420656e6f75676820746f6b656e73207374616b656400000000000000005f82015250565b5f610a99601883610904565b9150610aa482610a65565b602082019050919050565b5f6020820190508181035f830152610ac681610a8d565b9050919050565b5f610ad78261081b565b9150610ae28361081b565b9250828203905081811115610afa57610af9610a05565b5b9291505056fea264697066735822122060518954c5562f37c87e1bd95b226020b51c5978c1deb4a25d2d8c1aeb77b3e864736f6c634300081c0033","linkReferences":{}},"methodIdentifiers":{"getERC1155RewardMultiplier(address,uint256)":"8875a221","getStakedERC1155(address,uint256)":"462dc598","setStakingContractAddress(address)":"1c1f8aa3","stakeERC1155(address,uint256,uint256)":"b0fe4a7e","stakingContractAddress()":"3535f48b","unstakeERC1155(address,uint256,uint256)":"c63abdab"},"id":4}