{"abi":[{"type":"constructor","inputs":[{"name":"_contractOwner","type":"address","internalType":"address"},{"name":"_diamondCutFacet","type":"address","internalType":"address"}],"stateMutability":"payable"},{"type":"fallback","stateMutability":"payable"},{"type":"receive","stateMutability":"payable"},{"type":"function","name":"example","inputs":[],"outputs":[{"name":"","type":"string","internalType":"string"}],"stateMutability":"pure"},{"type":"event","name":"DiamondCut","inputs":[{"name":"_diamondCut","type":"tuple[]","indexed":false,"internalType":"struct IDiamondCut.FacetCut[]","components":[{"name":"facetAddress","type":"address","internalType":"address"},{"name":"action","type":"uint8","internalType":"enum IDiamondCut.FacetCutAction"},{"name":"functionSelectors","type":"bytes4[]","internalType":"bytes4[]"}]},{"name":"_init","type":"address","indexed":false,"internalType":"address"},{"name":"_calldata","type":"bytes","indexed":false,"internalType":"bytes"}],"anonymous":false},{"type":"event","name":"OwnershipTransferred","inputs":[{"name":"previousOwner","type":"address","indexed":true,"internalType":"address"},{"name":"newOwner","type":"address","indexed":true,"internalType":"address"}],"anonymous":false},{"type":"error","name":"EmptyCalldata","inputs":[]},{"type":"error","name":"ImmutableFunction","inputs":[{"name":"selector","type":"bytes4","internalType":"bytes4"}]},{"type":"error","name":"InValidFacetCutAction","inputs":[]},{"type":"error","name":"InitCallFailed","inputs":[]},{"type":"error","name":"MustBeZeroAddress","inputs":[]},{"type":"error","name":"NoCode","inputs":[]},{"type":"error","name":"NoSelectorsInFacet","inputs":[]},{"type":"error","name":"NoZeroAddress","inputs":[]},{"type":"error","name":"NonEmptyCalldata","inputs":[]},{"type":"error","name":"NonExistentSelector","inputs":[{"name":"selector","type":"bytes4","internalType":"bytes4"}]},{"type":"error","name":"SameSelectorReplacement","inputs":[{"name":"selector","type":"bytes4","internalType":"bytes4"}]},{"type":"error","name":"SelectorExists","inputs":[{"name":"selector","type":"bytes4","internalType":"bytes4"}]}],"bytecode":{"object":"0x6080604052604051611f52380380611f528339818101604052810190610025919061169d565b610034826101c960201b60201c565b5f600167ffffffffffffffff8111156100505761004f6116db565b5b60405190808252806020026020018201604052801561008957816020015b6100766115f8565b81526020019060019003908161006e5790505b5090505f600167ffffffffffffffff8111156100a8576100a76116db565b5b6040519080825280602002602001820160405280156100d65781602001602082028036833780820191505090505b509050631f931c1c60e01b815f815181106100f4576100f3611708565b5b60200260200101907bffffffffffffffffffffffffffffffffffffffffffffffffffffffff191690817bffffffffffffffffffffffffffffffffffffffffffffffffffffffff19168152505060405180606001604052808473ffffffffffffffffffffffffffffffffffffffff1681526020015f600281111561017a57610179611735565b5b815260200182815250825f8151811061019657610195611708565b5b60200260200101819052506101c0825f60405180602001604052805f8152506102a260201b60201c565b50505050611c2d565b5f6101d86104d460201b60201c565b90505f816004015f9054906101000a900473ffffffffffffffffffffffffffffffffffffffff16905082826004015f6101000a81548173ffffffffffffffffffffffffffffffffffffffff021916908373ffffffffffffffffffffffffffffffffffffffff1602179055508273ffffffffffffffffffffffffffffffffffffffff168173ffffffffffffffffffffffffffffffffffffffff167f8be0079c531659141344cd1fd0a4f28419497f9722a3daafe3b4186f6b6457e060405160405180910390a3505050565b5f5b8351811015610483575f8482815181106102c1576102c0611708565b5b60200260200101516020015190505f60028111156102e2576102e1611735565b5b8160028111156102f5576102f4611735565b5b0361034a576103458583815181106103105761030f611708565b5b60200260200101515f015186848151811061032e5761032d611708565b5b60200260200101516040015161050060201b60201c565b610475565b6001600281111561035e5761035d611735565b5b81600281111561037157610370611735565b5b036103c6576103c185838151811061038c5761038b611708565b5b60200260200101515f01518684815181106103aa576103a9611708565b5b60200260200101516040015161076260201b60201c565b610474565b6002808111156103d9576103d8611735565b5b8160028111156103ec576103eb611735565b5b036104415761043c85838151811061040757610406611708565b5b60200260200101515f015186848151811061042557610424611708565b5b6020026020010151604001516109d560201b60201c565b610473565b6040517f062f2eb800000000000000000000000000000000000000000000000000000000815260040160405180910390fd5b5b5b5080806001019150506102a4565b507f8faa70878671ccd212d20771b795c50af8fd3ff6cf27f4bde57e5d4de0aeb6738383836040516104b793929190611a20565b60405180910390a16104cf8282610b4960201b60201c565b505050565b5f5f7fc8fcad8db84d3cc18b4c41d551ea0ee66dd599cde068d998e57d5e09332c131c90508091505090565b5f81511161053a576040517f92d2fe5000000000000000000000000000000000000000000000000000000000815260040160405180910390fd5b5f6105496104d460201b60201c565b90505f73ffffffffffffffffffffffffffffffffffffffff168373ffffffffffffffffffffffffffffffffffffffff16036105b0576040517fddbadd5f00000000000000000000000000000000000000000000000000000000815260040160405180910390fd5b5f816001015f8573ffffffffffffffffffffffffffffffffffffffff1673ffffffffffffffffffffffffffffffffffffffff1681526020019081526020015f205f018054905090505f816bffffffffffffffffffffffff160361061e5761061d8285610d2660201b60201c565b5b5f5b835181101561075b575f84828151811061063d5761063c611708565b5b602002602001015190505f845f015f837bffffffffffffffffffffffffffffffffffffffffffffffffffffffff19167bffffffffffffffffffffffffffffffffffffffffffffffffffffffff191681526020019081526020015f205f015f9054906101000a900473ffffffffffffffffffffffffffffffffffffffff1690505f73ffffffffffffffffffffffffffffffffffffffff168173ffffffffffffffffffffffffffffffffffffffff161461072c57816040517f501e70c70000000000000000000000000000000000000000000000000000000081526004016107239190611a72565b60405180910390fd5b61073e8583868a610de960201b60201c565b838061074990611acf565b94505050508080600101915050610620565b5050505050565b5f81511161079c576040517f92d2fe5000000000000000000000000000000000000000000000000000000000815260040160405180910390fd5b5f6107ab6104d460201b60201c565b90505f73ffffffffffffffffffffffffffffffffffffffff168373ffffffffffffffffffffffffffffffffffffffff1603610812576040517fddbadd5f00000000000000000000000000000000000000000000000000000000815260040160405180910390fd5b5f816001015f8573ffffffffffffffffffffffffffffffffffffffff1673ffffffffffffffffffffffffffffffffffffffff1681526020019081526020015f205f018054905090505f816bffffffffffffffffffffffff16036108805761087f8285610d2660201b60201c565b5b5f5b83518110156109ce575f84828151811061089f5761089e611708565b5b602002602001015190505f845f015f837bffffffffffffffffffffffffffffffffffffffffffffffffffffffff19167bffffffffffffffffffffffffffffffffffffffffffffffffffffffff191681526020019081526020015f205f015f9054906101000a900473ffffffffffffffffffffffffffffffffffffffff1690508673ffffffffffffffffffffffffffffffffffffffff168173ffffffffffffffffffffffffffffffffffffffff160361098e57816040517fe020c4580000000000000000000000000000000000000000000000000000000081526004016109859190611a72565b60405180910390fd5b61099f858284610f8860201b60201c565b6109b18583868a610de960201b60201c565b83806109bc90611acf565b94505050508080600101915050610882565b5050505050565b5f815111610a0f576040517f92d2fe5000000000000000000000000000000000000000000000000000000000815260040160405180910390fd5b5f610a1e6104d460201b60201c565b90505f73ffffffffffffffffffffffffffffffffffffffff168373ffffffffffffffffffffffffffffffffffffffff1614610a85576040517f6f997f9400000000000000000000000000000000000000000000000000000000815260040160405180910390fd5b5f5b8251811015610b43575f838281518110610aa457610aa3611708565b5b602002602001015190505f835f015f837bffffffffffffffffffffffffffffffffffffffffffffffffffffffff19167bffffffffffffffffffffffffffffffffffffffffffffffffffffffff191681526020019081526020015f205f015f9054906101000a900473ffffffffffffffffffffffffffffffffffffffff169050610b34848284610f8860201b60201c565b50508080600101915050610a87565b50505050565b5f73ffffffffffffffffffffffffffffffffffffffff168273ffffffffffffffffffffffffffffffffffffffff1603610bbc575f81511115610bb7576040517fc21b1ab700000000000000000000000000000000000000000000000000000000815260040160405180910390fd5b610d22565b5f815103610bf6576040517fc047a18400000000000000000000000000000000000000000000000000000000815260040160405180910390fd5b3073ffffffffffffffffffffffffffffffffffffffff168273ffffffffffffffffffffffffffffffffffffffff1614610c3957610c38826115b660201b60201c565b5b5f5f8373ffffffffffffffffffffffffffffffffffffffff1683604051610c609190611b3c565b5f60405180830381855af49150503d805f8114610c98576040519150601f19603f3d011682016040523d82523d5f602084013e610c9d565b606091505b509150915081610d1f575f81511115610ced57806040517f08c379a0000000000000000000000000000000000000000000000000000000008152600401610ce49190611ba4565b60405180910390fd5b6040517f3a18f8dd00000000000000000000000000000000000000000000000000000000815260040160405180910390fd5b50505b5050565b610d35816115b660201b60201c565b8160020180549050826001015f8373ffffffffffffffffffffffffffffffffffffffff1673ffffffffffffffffffffffffffffffffffffffff1681526020019081526020015f20600101819055508160020181908060018154018082558091505060019003905f5260205f20015f9091909190916101000a81548173ffffffffffffffffffffffffffffffffffffffff021916908373ffffffffffffffffffffffffffffffffffffffff1602179055505050565b81845f015f857bffffffffffffffffffffffffffffffffffffffffffffffffffffffff19167bffffffffffffffffffffffffffffffffffffffffffffffffffffffff191681526020019081526020015f205f0160146101000a8154816bffffffffffffffffffffffff02191690836bffffffffffffffffffffffff160217905550836001015f8273ffffffffffffffffffffffffffffffffffffffff1673ffffffffffffffffffffffffffffffffffffffff1681526020019081526020015f205f0183908060018154018082558091505060019003905f5260205f2090600891828204019190066004029091909190916101000a81548163ffffffff021916908360e01c021790555080845f015f857bffffffffffffffffffffffffffffffffffffffffffffffffffffffff19167bffffffffffffffffffffffffffffffffffffffffffffffffffffffff191681526020019081526020015f205f015f6101000a81548173ffffffffffffffffffffffffffffffffffffffff021916908373ffffffffffffffffffffffffffffffffffffffff16021790555050505050565b5f73ffffffffffffffffffffffffffffffffffffffff168273ffffffffffffffffffffffffffffffffffffffff1603610ff857806040517f5205a600000000000000000000000000000000000000000000000000000000008152600401610fef9190611a72565b60405180910390fd5b3073ffffffffffffffffffffffffffffffffffffffff168273ffffffffffffffffffffffffffffffffffffffff160361106857806040517f69731c5000000000000000000000000000000000000000000000000000000000815260040161105f9190611a72565b60405180910390fd5b5f835f015f837bffffffffffffffffffffffffffffffffffffffffffffffffffffffff19167bffffffffffffffffffffffffffffffffffffffffffffffffffffffff191681526020019081526020015f205f0160149054906101000a90046bffffffffffffffffffffffff166bffffffffffffffffffffffff1690505f6001856001015f8673ffffffffffffffffffffffffffffffffffffffff1673ffffffffffffffffffffffffffffffffffffffff1681526020019081526020015f205f01805490506111369190611bcd565b90508082146112bb575f856001015f8673ffffffffffffffffffffffffffffffffffffffff1673ffffffffffffffffffffffffffffffffffffffff1681526020019081526020015f205f01828154811061119357611192611708565b5b905f5260205f2090600891828204019190066004029054906101000a900460e01b905080866001015f8773ffffffffffffffffffffffffffffffffffffffff1673ffffffffffffffffffffffffffffffffffffffff1681526020019081526020015f205f01848154811061120a57611209611708565b5b905f5260205f2090600891828204019190066004026101000a81548163ffffffff021916908360e01c021790555082865f015f837bffffffffffffffffffffffffffffffffffffffffffffffffffffffff19167bffffffffffffffffffffffffffffffffffffffffffffffffffffffff191681526020019081526020015f205f0160146101000a8154816bffffffffffffffffffffffff02191690836bffffffffffffffffffffffff160217905550505b846001015f8573ffffffffffffffffffffffffffffffffffffffff1673ffffffffffffffffffffffffffffffffffffffff1681526020019081526020015f205f0180548061130c5761130b611c00565b5b600190038181905f5260205f2090600891828204019190066004026101000a81549063ffffffff02191690559055845f015f847bffffffffffffffffffffffffffffffffffffffffffffffffffffffff19167bffffffffffffffffffffffffffffffffffffffffffffffffffffffff191681526020019081526020015f205f5f82015f6101000a81549073ffffffffffffffffffffffffffffffffffffffff02191690555f820160146101000a8154906bffffffffffffffffffffffff021916905550505f81036115af575f600186600201805490506113ec9190611bcd565b90505f866001015f8773ffffffffffffffffffffffffffffffffffffffff1673ffffffffffffffffffffffffffffffffffffffff1681526020019081526020015f20600101549050818114611521575f87600201838154811061145257611451611708565b5b905f5260205f20015f9054906101000a900473ffffffffffffffffffffffffffffffffffffffff1690508088600201838154811061149357611492611708565b5b905f5260205f20015f6101000a81548173ffffffffffffffffffffffffffffffffffffffff021916908373ffffffffffffffffffffffffffffffffffffffff16021790555081886001015f8373ffffffffffffffffffffffffffffffffffffffff1673ffffffffffffffffffffffffffffffffffffffff1681526020019081526020015f2060010181905550505b8660020180548061153557611534611c00565b5b600190038181905f5260205f20015f6101000a81549073ffffffffffffffffffffffffffffffffffffffff02191690559055866001015f8773ffffffffffffffffffffffffffffffffffffffff1673ffffffffffffffffffffffffffffffffffffffff1681526020019081526020015f206001015f905550505b5050505050565b5f813b90505f81116115f4576040517ff046a71400000000000000000000000000000000000000000000000000000000815260040160405180910390fd5b5050565b60405180606001604052805f73ffffffffffffffffffffffffffffffffffffffff1681526020015f600281111561163257611631611735565b5b8152602001606081525090565b5f5ffd5b5f73ffffffffffffffffffffffffffffffffffffffff82169050919050565b5f61166c82611643565b9050919050565b61167c81611662565b8114611686575f5ffd5b50565b5f8151905061169781611673565b92915050565b5f5f604083850312156116b3576116b261163f565b5b5f6116c085828601611689565b92505060206116d185828601611689565b9150509250929050565b7f4e487b71000000000000000000000000000000000000000000000000000000005f52604160045260245ffd5b7f4e487b71000000000000000000000000000000000000000000000000000000005f52603260045260245ffd5b7f4e487b71000000000000000000000000000000000000000000000000000000005f52602160045260245ffd5b5f81519050919050565b5f82825260208201905092915050565b5f819050602082019050919050565b61179481611662565b82525050565b600381106117ab576117aa611735565b5b50565b5f8190506117bb8261179a565b919050565b5f6117ca826117ae565b9050919050565b6117da816117c0565b82525050565b5f81519050919050565b5f82825260208201905092915050565b5f819050602082019050919050565b5f7fffffffff0000000000000000000000000000000000000000000000000000000082169050919050565b61183d81611809565b82525050565b5f61184e8383611834565b60208301905092915050565b5f602082019050919050565b5f611870826117e0565b61187a81856117ea565b9350611885836117fa565b805f5b838110156118b557815161189c8882611843565b97506118a78361185a565b925050600181019050611888565b5085935050505092915050565b5f606083015f8301516118d75f86018261178b565b5060208301516118ea60208601826117d1565b50604083015184820360408601526119028282611866565b9150508091505092915050565b5f61191a83836118c2565b905092915050565b5f602082019050919050565b5f61193882611762565b611942818561176c565b9350836020820285016119548561177c565b805f5b8581101561198f5784840389528151611970858261190f565b945061197b83611922565b925060208a01995050600181019050611957565b50829750879550505050505092915050565b6119aa81611662565b82525050565b5f81519050919050565b5f82825260208201905092915050565b8281835e5f83830152505050565b5f601f19601f8301169050919050565b5f6119f2826119b0565b6119fc81856119ba565b9350611a0c8185602086016119ca565b611a15816119d8565b840191505092915050565b5f6060820190508181035f830152611a38818661192e565b9050611a4760208301856119a1565b8181036040830152611a5981846119e8565b9050949350505050565b611a6c81611809565b82525050565b5f602082019050611a855f830184611a63565b92915050565b7f4e487b71000000000000000000000000000000000000000000000000000000005f52601160045260245ffd5b5f6bffffffffffffffffffffffff82169050919050565b5f611ad982611ab8565b91506bffffffffffffffffffffffff8203611af757611af6611a8b565b5b600182019050919050565b5f81905092915050565b5f611b16826119b0565b611b208185611b02565b9350611b308185602086016119ca565b80840191505092915050565b5f611b478284611b0c565b915081905092915050565b5f81519050919050565b5f82825260208201905092915050565b5f611b7682611b52565b611b808185611b5c565b9350611b908185602086016119ca565b611b99816119d8565b840191505092915050565b5f6020820190508181035f830152611bbc8184611b6c565b905092915050565b5f819050919050565b5f611bd782611bc4565b9150611be283611bc4565b9250828203905081811115611bfa57611bf9611a8b565b5b92915050565b7f4e487b71000000000000000000000000000000000000000000000000000000005f52603160045260245ffd5b61031880611c3a5f395ff3fe608060405260043610610021575f3560e01c806354353f2f1461017557610028565b3661002857005b5f5f7fc8fcad8db84d3cc18b4c41d551ea0ee66dd599cde068d998e57d5e09332c131c90508091505f825f015f5f357fffffffff00000000000000000000000000000000000000000000000000000000167bffffffffffffffffffffffffffffffffffffffffffffffffffffffff19167bffffffffffffffffffffffffffffffffffffffffffffffffffffffff191681526020019081526020015f205f015f9054906101000a900473ffffffffffffffffffffffffffffffffffffffff1690505f73ffffffffffffffffffffffffffffffffffffffff168173ffffffffffffffffffffffffffffffffffffffff1603610156576040517f08c379a000000000000000000000000000000000000000000000000000000000815260040161014d90610219565b60405180910390fd5b365f5f375f5f365f845af43d5f5f3e805f8114610171573d5ff35b3d5ffd5b348015610180575f5ffd5b5061018961019f565b6040516101969190610297565b60405180910390f35b60606040518060600160405280602b81526020016102b8602b9139905090565b5f82825260208201905092915050565b7f4469616d6f6e643a2046756e6374696f6e20646f6573206e6f742065786973745f82015250565b5f6102036020836101bf565b915061020e826101cf565b602082019050919050565b5f6020820190508181035f830152610230816101f7565b9050919050565b5f81519050919050565b8281835e5f83830152505050565b5f601f19601f8301169050919050565b5f61026982610237565b61027381856101bf565b9350610283818560208601610241565b61028c8161024f565b840191505092915050565b5f6020820190508181035f8301526102af818461025f565b90509291505056fe5448495320495320414e204558414d504c45204f4620414e20494d4d555441424c452046554e4354494f4ea2646970667358221220a851c6d2274323c760236d0c7437a865f18d7948b129290a0aac2a1600f02d2364736f6c634300081c0033","linkReferences":{}},"methodIdentifiers":{"example()":"54353f2f"},"id":0}