{"abi":[{"type":"function","name":"calculateMultiTokenBoost","inputs":[{"name":"user","type":"address","internalType":"address"}],"outputs":[{"name":"","type":"uint256","internalType":"uint256"}],"stateMutability":"view"},{"type":"function","name":"calculateReward","inputs":[{"name":"user","type":"address","internalType":"address"}],"outputs":[{"name":"","type":"uint256","internalType":"uint256"}],"stateMutability":"view"},{"type":"function","name":"claimRewards","inputs":[],"outputs":[],"stateMutability":"nonpayable"},{"type":"function","name":"updateStakingParameters","inputs":[{"name":"_baseAPR","type":"uint256","internalType":"uint256"},{"name":"_decayRate","type":"uint256","internalType":"uint256"},{"name":"_boostMultiplier","type":"uint256","internalType":"uint256"}],"outputs":[],"stateMutability":"nonpayable"},{"type":"event","name":"RewardClaimed","inputs":[{"name":"user","type":"address","indexed":true,"internalType":"address"},{"name":"amount","type":"uint256","indexed":false,"internalType":"uint256"}],"anonymous":false},{"type":"event","name":"StakingParametersUpdated","inputs":[{"name":"baseAPR","type":"uint256","indexed":false,"internalType":"uint256"},{"name":"decayRate","type":"uint256","indexed":false,"internalType":"uint256"},{"name":"boostMultiplier","type":"uint256","indexed":false,"internalType":"uint256"}],"anonymous":false}],"bytecode":{"object":"0x6080604052348015600e575f5ffd5b506110c68061001c5f395ff3fe608060405234801561000f575f5ffd5b506004361061004a575f3560e01c8063323f90f51461004e578063372500ab1461007e578063892fee3c14610088578063d82e3962146100a4575b5f5ffd5b61006860048036038101906100639190610b1b565b6100d4565b6040516100759190610b5e565b60405180910390f35b6100866103a6565b005b6100a2600480360381019061009d9190610ba1565b6105bc565b005b6100be60048036038101906100b99190610b1b565b6106eb565b6040516100cb9190610b5e565b60405180910390f35b5f5f5f90505f5f905061015a6040518060400160405280600d81526020017f5374616b65642045524332303a000000000000000000000000000000000000008152505f5f015f8773ffffffffffffffffffffffffffffffffffffffff1673ffffffffffffffffffffffffffffffffffffffff1681526020019081526020015f2054610931565b6101db6040518060400160405280601581526020017f5374616b656420455243373231206c656e6774683a00000000000000000000008152505f6001015f8773ffffffffffffffffffffffffffffffffffffffff1673ffffffffffffffffffffffffffffffffffffffff1681526020019081526020015f2080549050610931565b6102696040518060400160405280601281526020017f5374616b656420455243313135355b315d3a00000000000000000000000000008152505f6002015f8773ffffffffffffffffffffffffffffffffffffffff1673ffffffffffffffffffffffffffffffffffffffff1681526020019081526020015f205f600181526020019081526020015f2054610931565b5f5f5f015f8673ffffffffffffffffffffffffffffffffffffffff1673ffffffffffffffffffffffffffffffffffffffff1681526020019081526020015f205411156102be5780806102ba90610c1e565b9150505b5f5f6001015f8673ffffffffffffffffffffffffffffffffffffffff1673ffffffffffffffffffffffffffffffffffffffff1681526020019081526020015f2080549050111561031757808061031390610c1e565b9150505b5f5f6002015f8673ffffffffffffffffffffffffffffffffffffffff1673ffffffffffffffffffffffffffffffffffffffff1681526020019081526020015f205f600181526020019081526020015f2054111561037d57808061037990610c1e565b9150505b6002810361038e57600a915061039c565b6003810361039b57601991505b5b8192505050919050565b5f6103b0336106eb565b90506104286040518060400160405280601581526020017f43616c63756c617465642052657761726420666f720000000000000000000000815250336040518060400160405280600181526020017f3a00000000000000000000000000000000000000000000000000000000000000815250846109cd565b5f811161046a576040517f08c379a000000000000000000000000000000000000000000000000000000000815260040161046190610cbf565b60405180910390fd5b805f6003015f3373ffffffffffffffffffffffffffffffffffffffff1673ffffffffffffffffffffffffffffffffffffffff1681526020019081526020015f205f8282546104b89190610cdd565b92505081905550425f6004015f3373ffffffffffffffffffffffffffffffffffffffff1673ffffffffffffffffffffffffffffffffffffffff1681526020019081526020015f20819055503073ffffffffffffffffffffffffffffffffffffffff166340c10f1933836040518363ffffffff1660e01b815260040161053e929190610d1f565b5f604051808303815f87803b158015610555575f5ffd5b505af1158015610567573d5f5f3e3d5ffd5b505050503373ffffffffffffffffffffffffffffffffffffffff167f106f923f993c2149d49b4255ff723acafa1f2d94393f561d3eda32ae348f7241826040516105b19190610b5e565b60405180910390a250565b612710831115610601576040517f08c379a00000000000000000000000000000000000000000000000000000000081526004016105f890610d90565b60405180910390fd5b670de0b6b3a764000082111561064c576040517f08c379a000000000000000000000000000000000000000000000000000000000815260040161064390610df8565b60405180910390fd5b6032811115610690576040517f08c379a000000000000000000000000000000000000000000000000000000000815260040161068790610e60565b60405180910390fd5b825f60060181905550815f60070181905550805f600801819055507fb59f89ad204daf5232aca0b5509a44082f606ac614adbf9d930e9b3dfc8a02d98383836040516106de93929190610e7e565b60405180910390a1505050565b5f5f5f6004015f8473ffffffffffffffffffffffffffffffffffffffff1673ffffffffffffffffffffffffffffffffffffffff1681526020019081526020015f2054426107389190610eb3565b90505f810361074a575f91505061092c565b6107c76040518060400160405280600d81526020017f5374616b65642045524332303a000000000000000000000000000000000000008152505f5f015f8673ffffffffffffffffffffffffffffffffffffffff1673ffffffffffffffffffffffffffffffffffffffff1681526020019081526020015f2054610931565b61080a6040518060400160405280600981526020017f42617365204150523a00000000000000000000000000000000000000000000008152505f60060154610931565b6108496040518060400160405280600d81526020017f54696d6520456c61707365643a0000000000000000000000000000000000000081525082610931565b5f64496cebb800825f600601545f5f015f8873ffffffffffffffffffffffffffffffffffffffff1673ffffffffffffffffffffffffffffffffffffffff1681526020019081526020015f205461089f9190610ee6565b6108a99190610ee6565b6108b39190610f54565b90505f6108bf856100d4565b90505f60648260646108d19190610cdd565b846108dc9190610ee6565b6108e69190610f54565b9050670de0b6b3a7640000845f600701546109019190610ee6565b61090b9190610f54565b60016109179190610cdd565b816109229190610f54565b9050809450505050505b919050565b6109c98282604051602401610947929190610fe4565b6040516020818303038152906040527fb60e72cc000000000000000000000000000000000000000000000000000000007bffffffffffffffffffffffffffffffffffffffffffffffffffffffff19166020820180517bffffffffffffffffffffffffffffffffffffffffffffffffffffffff8381831617835250505050610a6f565b5050565b610a69848484846040516024016109e79493929190611012565b6040516020818303038152906040527f91d1112e000000000000000000000000000000000000000000000000000000007bffffffffffffffffffffffffffffffffffffffffffffffffffffffff19166020820180517bffffffffffffffffffffffffffffffffffffffffffffffffffffffff8381831617835250505050610a6f565b50505050565b610a8681610a7e610a89610aa8565b63ffffffff16565b50565b5f6a636f6e736f6c652e6c6f6790505f5f835160208501845afa505050565b610ab3819050919050565b610abb611063565b565b5f5ffd5b5f73ffffffffffffffffffffffffffffffffffffffff82169050919050565b5f610aea82610ac1565b9050919050565b610afa81610ae0565b8114610b04575f5ffd5b50565b5f81359050610b1581610af1565b92915050565b5f60208284031215610b3057610b2f610abd565b5b5f610b3d84828501610b07565b91505092915050565b5f819050919050565b610b5881610b46565b82525050565b5f602082019050610b715f830184610b4f565b92915050565b610b8081610b46565b8114610b8a575f5ffd5b50565b5f81359050610b9b81610b77565b92915050565b5f5f5f60608486031215610bb857610bb7610abd565b5b5f610bc586828701610b8d565b9350506020610bd686828701610b8d565b9250506040610be786828701610b8d565b9150509250925092565b7f4e487b71000000000000000000000000000000000000000000000000000000005f52601160045260245ffd5b5f610c2882610b46565b91507fffffffffffffffffffffffffffffffffffffffffffffffffffffffffffffffff8203610c5a57610c59610bf1565b5b600182019050919050565b5f82825260208201905092915050565b7f4e6f207265776172647320617661696c61626c650000000000000000000000005f82015250565b5f610ca9601483610c65565b9150610cb482610c75565b602082019050919050565b5f6020820190508181035f830152610cd681610c9d565b9050919050565b5f610ce782610b46565b9150610cf283610b46565b9250828201905080821115610d0a57610d09610bf1565b5b92915050565b610d1981610ae0565b82525050565b5f604082019050610d325f830185610d10565b610d3f6020830184610b4f565b9392505050565b7f496e76616c6964204150520000000000000000000000000000000000000000005f82015250565b5f610d7a600b83610c65565b9150610d8582610d46565b602082019050919050565b5f6020820190508181035f830152610da781610d6e565b9050919050565b7f496e76616c6964206465636179207261746500000000000000000000000000005f82015250565b5f610de2601283610c65565b9150610ded82610dae565b602082019050919050565b5f6020820190508181035f830152610e0f81610dd6565b9050919050565b7f496e76616c696420626f6f7374000000000000000000000000000000000000005f82015250565b5f610e4a600d83610c65565b9150610e5582610e16565b602082019050919050565b5f6020820190508181035f830152610e7781610e3e565b9050919050565b5f606082019050610e915f830186610b4f565b610e9e6020830185610b4f565b610eab6040830184610b4f565b949350505050565b5f610ebd82610b46565b9150610ec883610b46565b9250828203905081811115610ee057610edf610bf1565b5b92915050565b5f610ef082610b46565b9150610efb83610b46565b9250828202610f0981610b46565b91508282048414831517610f2057610f1f610bf1565b5b5092915050565b7f4e487b71000000000000000000000000000000000000000000000000000000005f52601260045260245ffd5b5f610f5e82610b46565b9150610f6983610b46565b925082610f7957610f78610f27565b5b828204905092915050565b5f81519050919050565b8281835e5f83830152505050565b5f601f19601f8301169050919050565b5f610fb682610f84565b610fc08185610c65565b9350610fd0818560208601610f8e565b610fd981610f9c565b840191505092915050565b5f6040820190508181035f830152610ffc8185610fac565b905061100b6020830184610b4f565b9392505050565b5f6080820190508181035f83015261102a8187610fac565b90506110396020830186610d10565b818103604083015261104b8185610fac565b905061105a6060830184610b4f565b95945050505050565b7f4e487b71000000000000000000000000000000000000000000000000000000005f52605160045260245ffdfea264697066735822122039ace96ec45bbb0dd57dc870f0a51221f44196d624799ae8d62fe4818288d21c64736f6c634300081c0033","linkReferences":{}},"methodIdentifiers":{"calculateMultiTokenBoost(address)":"323f90f5","calculateReward(address)":"d82e3962","claimRewards()":"372500ab","updateStakingParameters(uint256,uint256,uint256)":"892fee3c"},"id":8}