{"abi":[{"type":"function","name":"calculateMultiTokenBoost","inputs":[{"name":"user","type":"address","internalType":"address"}],"outputs":[{"name":"","type":"uint256","internalType":"uint256"}],"stateMutability":"view"},{"type":"function","name":"calculateReward","inputs":[{"name":"user","type":"address","internalType":"address"}],"outputs":[{"name":"","type":"uint256","internalType":"uint256"}],"stateMutability":"view"},{"type":"function","name":"claimRewards","inputs":[],"outputs":[],"stateMutability":"nonpayable"},{"type":"function","name":"updateStakingParameters","inputs":[{"name":"_baseAPR","type":"uint256","internalType":"uint256"},{"name":"_decayRate","type":"uint256","internalType":"uint256"},{"name":"_boostMultiplier","type":"uint256","internalType":"uint256"}],"outputs":[],"stateMutability":"nonpayable"},{"type":"event","name":"RewardClaimed","inputs":[{"name":"user","type":"address","indexed":true,"internalType":"address"},{"name":"amount","type":"uint256","indexed":false,"internalType":"uint256"}],"anonymous":false},{"type":"event","name":"StakingParametersUpdated","inputs":[{"name":"baseAPR","type":"uint256","indexed":false,"internalType":"uint256"},{"name":"decayRate","type":"uint256","indexed":false,"internalType":"uint256"},{"name":"boostMultiplier","type":"uint256","indexed":false,"internalType":"uint256"}],"anonymous":false}],"bytecode":{"object":"0x6080604052348015600e575f5ffd5b50610de08061001c5f395ff3fe608060405234801561000f575f5ffd5b506004361061004a575f3560e01c8063323f90f51461004e578063372500ab1461007e578063892fee3c14610088578063d82e3962146100a4575b5f5ffd5b61006860048036038101906100639190610863565b6100d4565b60405161007591906108a6565b60405180910390f35b61008661025d565b005b6100a2600480360381019061009d91906108e9565b61047f565b005b6100be60048036038101906100b99190610863565b6105ba565b6040516100cb91906108a6565b60405180910390f35b5f5f6100de61070e565b90505f5f90505f5f90505f835f015f8773ffffffffffffffffffffffffffffffffffffffff1673ffffffffffffffffffffffffffffffffffffffff1681526020019081526020015f2054111561013d57808061013990610966565b9150505b5f836001015f8773ffffffffffffffffffffffffffffffffffffffff1673ffffffffffffffffffffffffffffffffffffffff1681526020019081526020015f2080549050111561019657808061019290610966565b9150505b5f5f90505f5f90505b606481101561021a575f856002015f8973ffffffffffffffffffffffffffffffffffffffff1673ffffffffffffffffffffffffffffffffffffffff1681526020019081526020015f205f8381526020019081526020015f2054111561020d57818061020990610966565b9250505b808060010191505061019f565b505f81111561023257818061022e90610966565b9250505b6002820361024357600a9250610251565b6003820361025057601992505b5b82945050505050919050565b5f61026661070e565b90505f610272336105ba565b90506102ea6040518060400160405280601581526020017f43616c63756c617465642052657761726420666f720000000000000000000000815250336040518060400160405280600181526020017f3a0000000000000000000000000000000000000000000000000000000000000081525084610715565b5f811161032c576040517f08c379a000000000000000000000000000000000000000000000000000000000815260040161032390610a07565b60405180910390fd5b80826003015f3373ffffffffffffffffffffffffffffffffffffffff1673ffffffffffffffffffffffffffffffffffffffff1681526020019081526020015f205f82825461037a9190610a25565b9250508190555042826004015f3373ffffffffffffffffffffffffffffffffffffffff1673ffffffffffffffffffffffffffffffffffffffff1681526020019081526020015f20819055503073ffffffffffffffffffffffffffffffffffffffff166340c10f1933836040518363ffffffff1660e01b8152600401610400929190610a67565b5f604051808303815f87803b158015610417575f5ffd5b505af1158015610429573d5f5f3e3d5ffd5b505050503373ffffffffffffffffffffffffffffffffffffffff167f106f923f993c2149d49b4255ff723acafa1f2d94393f561d3eda32ae348f72418260405161047391906108a6565b60405180910390a25050565b5f61048861070e565b90506127108411156104cf576040517f08c379a00000000000000000000000000000000000000000000000000000000081526004016104c690610ad8565b60405180910390fd5b670de0b6b3a764000083111561051a576040517f08c379a000000000000000000000000000000000000000000000000000000000815260040161051190610b40565b60405180910390fd5b603282111561055e576040517f08c379a000000000000000000000000000000000000000000000000000000000815260040161055590610ba8565b60405180910390fd5b8381600601819055508281600701819055508181600801819055507fb59f89ad204daf5232aca0b5509a44082f606ac614adbf9d930e9b3dfc8a02d98484846040516105ac93929190610bc6565b60405180910390a150505050565b5f5f6105c461070e565b90505f816004015f8573ffffffffffffffffffffffffffffffffffffffff1673ffffffffffffffffffffffffffffffffffffffff1681526020019081526020015f2054426106129190610bfb565b90505f8103610625575f92505050610709565b5f64496cebb800828460060154855f015f8973ffffffffffffffffffffffffffffffffffffffff1673ffffffffffffffffffffffffffffffffffffffff1681526020019081526020015f205461067b9190610c2e565b6106859190610c2e565b61068f9190610c9c565b90505f61069b866100d4565b90505f60648260646106ad9190610a25565b846106b89190610c2e565b6106c29190610c9c565b9050670de0b6b3a76400008486600701546106dd9190610c2e565b6106e79190610c9c565b60016106f39190610a25565b816106fe9190610c9c565b905080955050505050505b919050565b5f5f905090565b6107b18484848460405160240161072f9493929190610d2c565b6040516020818303038152906040527f91d1112e000000000000000000000000000000000000000000000000000000007bffffffffffffffffffffffffffffffffffffffffffffffffffffffff19166020820180517bffffffffffffffffffffffffffffffffffffffffffffffffffffffff83818316178352505050506107b7565b50505050565b6107ce816107c66107d16107f0565b63ffffffff16565b50565b5f6a636f6e736f6c652e6c6f6790505f5f835160208501845afa505050565b6107fb819050919050565b610803610d7d565b565b5f5ffd5b5f73ffffffffffffffffffffffffffffffffffffffff82169050919050565b5f61083282610809565b9050919050565b61084281610828565b811461084c575f5ffd5b50565b5f8135905061085d81610839565b92915050565b5f6020828403121561087857610877610805565b5b5f6108858482850161084f565b91505092915050565b5f819050919050565b6108a08161088e565b82525050565b5f6020820190506108b95f830184610897565b92915050565b6108c88161088e565b81146108d2575f5ffd5b50565b5f813590506108e3816108bf565b92915050565b5f5f5f60608486031215610900576108ff610805565b5b5f61090d868287016108d5565b935050602061091e868287016108d5565b925050604061092f868287016108d5565b9150509250925092565b7f4e487b71000000000000000000000000000000000000000000000000000000005f52601160045260245ffd5b5f6109708261088e565b91507fffffffffffffffffffffffffffffffffffffffffffffffffffffffffffffffff82036109a2576109a1610939565b5b600182019050919050565b5f82825260208201905092915050565b7f4e6f207265776172647320617661696c61626c650000000000000000000000005f82015250565b5f6109f16014836109ad565b91506109fc826109bd565b602082019050919050565b5f6020820190508181035f830152610a1e816109e5565b9050919050565b5f610a2f8261088e565b9150610a3a8361088e565b9250828201905080821115610a5257610a51610939565b5b92915050565b610a6181610828565b82525050565b5f604082019050610a7a5f830185610a58565b610a876020830184610897565b9392505050565b7f496e76616c6964204150520000000000000000000000000000000000000000005f82015250565b5f610ac2600b836109ad565b9150610acd82610a8e565b602082019050919050565b5f6020820190508181035f830152610aef81610ab6565b9050919050565b7f496e76616c6964206465636179207261746500000000000000000000000000005f82015250565b5f610b2a6012836109ad565b9150610b3582610af6565b602082019050919050565b5f6020820190508181035f830152610b5781610b1e565b9050919050565b7f496e76616c696420626f6f7374000000000000000000000000000000000000005f82015250565b5f610b92600d836109ad565b9150610b9d82610b5e565b602082019050919050565b5f6020820190508181035f830152610bbf81610b86565b9050919050565b5f606082019050610bd95f830186610897565b610be66020830185610897565b610bf36040830184610897565b949350505050565b5f610c058261088e565b9150610c108361088e565b9250828203905081811115610c2857610c27610939565b5b92915050565b5f610c388261088e565b9150610c438361088e565b9250828202610c518161088e565b91508282048414831517610c6857610c67610939565b5b5092915050565b7f4e487b71000000000000000000000000000000000000000000000000000000005f52601260045260245ffd5b5f610ca68261088e565b9150610cb18361088e565b925082610cc157610cc0610c6f565b5b828204905092915050565b5f81519050919050565b8281835e5f83830152505050565b5f601f19601f8301169050919050565b5f610cfe82610ccc565b610d0881856109ad565b9350610d18818560208601610cd6565b610d2181610ce4565b840191505092915050565b5f6080820190508181035f830152610d448187610cf4565b9050610d536020830186610a58565b8181036040830152610d658185610cf4565b9050610d746060830184610897565b95945050505050565b7f4e487b71000000000000000000000000000000000000000000000000000000005f52605160045260245ffdfea2646970667358221220c9f5a16150870d337f08cff379c27ad1f6bd4e4e36aafb6b52e33bb3b9d0570664736f6c634300081c0033","linkReferences":{}},"methodIdentifiers":{"calculateMultiTokenBoost(address)":"323f90f5","calculateReward(address)":"d82e3962","claimRewards()":"372500ab","updateStakingParameters(uint256,uint256,uint256)":"892fee3c"},"id":8}