{"abi":[{"type":"function","name":"getStakedERC721","inputs":[{"name":"user","type":"address","internalType":"address"}],"outputs":[{"name":"","type":"uint256[]","internalType":"uint256[]"}],"stateMutability":"view"},{"type":"function","name":"setStakingContractAddress","inputs":[{"name":"stakingContract","type":"address","internalType":"address"}],"outputs":[],"stateMutability":"nonpayable"},{"type":"function","name":"stakeERC721","inputs":[{"name":"token","type":"address","internalType":"address"},{"name":"tokenId","type":"uint256","internalType":"uint256"}],"outputs":[],"stateMutability":"nonpayable"},{"type":"function","name":"stakingContractAddress","inputs":[],"outputs":[{"name":"","type":"address","internalType":"address"}],"stateMutability":"view"},{"type":"function","name":"unstakeERC721","inputs":[{"name":"token","type":"address","internalType":"address"},{"name":"tokenId","type":"uint256","internalType":"uint256"}],"outputs":[],"stateMutability":"nonpayable"},{"type":"event","name":"Staked","inputs":[{"name":"user","type":"address","indexed":true,"internalType":"address"},{"name":"token","type":"address","indexed":true,"internalType":"address"},{"name":"tokenId","type":"uint256","indexed":true,"internalType":"uint256"}],"anonymous":false},{"type":"event","name":"Unstaked","inputs":[{"name":"user","type":"address","indexed":true,"internalType":"address"},{"name":"token","type":"address","indexed":true,"internalType":"address"},{"name":"tokenId","type":"uint256","indexed":true,"internalType":"uint256"}],"anonymous":false}],"bytecode":{"object":"0x6080604052348015600e575f5ffd5b50610d648061001c5f395ff3fe608060405234801561000f575f5ffd5b5060043610610055575f3560e01c8063075b52c6146100595780631c1f8aa314610075578063350d95ec146100915780633535f48b146100c15780634c23648d146100df575b5f5ffd5b610073600480360381019061006e9190610990565b6100fb565b005b61008f600480360381019061008a91906109ce565b610439565b005b6100ab60048036038101906100a691906109ce565b61047c565b6040516100b89190610ab0565b60405180910390f35b6100c9610511565b6040516100d69190610adf565b60405180910390f35b6100f960048036038101906100f49190610990565b610536565b005b5f610106338361080e565b90505f6001015f3373ffffffffffffffffffffffffffffffffffffffff1673ffffffffffffffffffffffffffffffffffffffff1681526020019081526020015f2080549050811061018c576040517f08c379a000000000000000000000000000000000000000000000000000000000815260040161018390610b52565b60405180910390fd5b600c5f9054906101000a900473ffffffffffffffffffffffffffffffffffffffff1673ffffffffffffffffffffffffffffffffffffffff1663372500ab6040518163ffffffff1660e01b81526004015f604051808303815f87803b1580156101f2575f5ffd5b505af1158015610204573d5f5f3e3d5ffd5b505050505f6001015f3373ffffffffffffffffffffffffffffffffffffffff1673ffffffffffffffffffffffffffffffffffffffff1681526020019081526020015f2060015f6001015f3373ffffffffffffffffffffffffffffffffffffffff1673ffffffffffffffffffffffffffffffffffffffff1681526020019081526020015f20805490506102969190610b9d565b815481106102a7576102a6610bd0565b5b905f5260205f2001545f6001015f3373ffffffffffffffffffffffffffffffffffffffff1673ffffffffffffffffffffffffffffffffffffffff1681526020019081526020015f20828154811061030157610300610bd0565b5b905f5260205f2001819055505f6001015f3373ffffffffffffffffffffffffffffffffffffffff1673ffffffffffffffffffffffffffffffffffffffff1681526020019081526020015f2080548061035c5761035b610bfd565b5b600190038181905f5260205f20015f905590558273ffffffffffffffffffffffffffffffffffffffff166323b872dd3033856040518463ffffffff1660e01b81526004016103ac93929190610c39565b5f604051808303815f87803b1580156103c3575f5ffd5b505af11580156103d5573d5f5f3e3d5ffd5b50505050818373ffffffffffffffffffffffffffffffffffffffff163373ffffffffffffffffffffffffffffffffffffffff167fd8654fcc8cf5b36d30b3f5e4688fc78118e6d68de60b9994e09902268b57c3e360405160405180910390a4505050565b80600c5f6101000a81548173ffffffffffffffffffffffffffffffffffffffff021916908373ffffffffffffffffffffffffffffffffffffffff16021790555050565b60605f6001015f8373ffffffffffffffffffffffffffffffffffffffff1673ffffffffffffffffffffffffffffffffffffffff1681526020019081526020015f2080548060200260200160405190810160405280929190818152602001828054801561050557602002820191905f5260205f20905b8154815260200190600101908083116104f1575b50505050509050919050565b600c5f9054906101000a900473ffffffffffffffffffffffffffffffffffffffff1681565b3373ffffffffffffffffffffffffffffffffffffffff168273ffffffffffffffffffffffffffffffffffffffff16636352211e836040518263ffffffff1660e01b81526004016105869190610c6e565b602060405180830381865afa1580156105a1573d5f5f3e3d5ffd5b505050506040513d601f19601f820116820180604052508101906105c59190610c9b565b73ffffffffffffffffffffffffffffffffffffffff161461061b576040517f08c379a000000000000000000000000000000000000000000000000000000000815260040161061290610d10565b60405180910390fd5b5f5f6001015f3373ffffffffffffffffffffffffffffffffffffffff1673ffffffffffffffffffffffffffffffffffffffff1681526020019081526020015f208054905011156106e257600c5f9054906101000a900473ffffffffffffffffffffffffffffffffffffffff1673ffffffffffffffffffffffffffffffffffffffff1663372500ab6040518163ffffffff1660e01b81526004015f604051808303815f87803b1580156106cb575f5ffd5b505af11580156106dd573d5f5f3e3d5ffd5b505050505b8173ffffffffffffffffffffffffffffffffffffffff166323b872dd3330846040518463ffffffff1660e01b815260040161071f93929190610c39565b5f604051808303815f87803b158015610736575f5ffd5b505af1158015610748573d5f5f3e3d5ffd5b505050505f6001015f3373ffffffffffffffffffffffffffffffffffffffff1673ffffffffffffffffffffffffffffffffffffffff1681526020019081526020015f2081908060018154018082558091505060019003905f5260205f20015f9091909190915055808273ffffffffffffffffffffffffffffffffffffffff163373ffffffffffffffffffffffffffffffffffffffff167f5dac0c1b1112564a045ba943c9d50270893e8e826c49be8e7073adc713ab7bd760405160405180910390a45050565b5f5f5f90505b5f6001015f8573ffffffffffffffffffffffffffffffffffffffff1673ffffffffffffffffffffffffffffffffffffffff1681526020019081526020015f20805490508110156108d457825f6001015f8673ffffffffffffffffffffffffffffffffffffffff1673ffffffffffffffffffffffffffffffffffffffff1681526020019081526020015f2082815481106108b0576108af610bd0565b5b905f5260205f200154036108c757809150506108f9565b8080600101915050610814565b507fffffffffffffffffffffffffffffffffffffffffffffffffffffffffffffffff90505b92915050565b5f5ffd5b5f73ffffffffffffffffffffffffffffffffffffffff82169050919050565b5f61092c82610903565b9050919050565b61093c81610922565b8114610946575f5ffd5b50565b5f8135905061095781610933565b92915050565b5f819050919050565b61096f8161095d565b8114610979575f5ffd5b50565b5f8135905061098a81610966565b92915050565b5f5f604083850312156109a6576109a56108ff565b5b5f6109b385828601610949565b92505060206109c48582860161097c565b9150509250929050565b5f602082840312156109e3576109e26108ff565b5b5f6109f084828501610949565b91505092915050565b5f81519050919050565b5f82825260208201905092915050565b5f819050602082019050919050565b610a2b8161095d565b82525050565b5f610a3c8383610a22565b60208301905092915050565b5f602082019050919050565b5f610a5e826109f9565b610a688185610a03565b9350610a7383610a13565b805f5b83811015610aa3578151610a8a8882610a31565b9750610a9583610a48565b925050600181019050610a76565b5085935050505092915050565b5f6020820190508181035f830152610ac88184610a54565b905092915050565b610ad981610922565b82525050565b5f602082019050610af25f830184610ad0565b92915050565b5f82825260208201905092915050565b7f546f6b656e206e6f74207374616b6564000000000000000000000000000000005f82015250565b5f610b3c601083610af8565b9150610b4782610b08565b602082019050919050565b5f6020820190508181035f830152610b6981610b30565b9050919050565b7f4e487b71000000000000000000000000000000000000000000000000000000005f52601160045260245ffd5b5f610ba78261095d565b9150610bb28361095d565b9250828203905081811115610bca57610bc9610b70565b5b92915050565b7f4e487b71000000000000000000000000000000000000000000000000000000005f52603260045260245ffd5b7f4e487b71000000000000000000000000000000000000000000000000000000005f52603160045260245ffd5b610c338161095d565b82525050565b5f606082019050610c4c5f830186610ad0565b610c596020830185610ad0565b610c666040830184610c2a565b949350505050565b5f602082019050610c815f830184610c2a565b92915050565b5f81519050610c9581610933565b92915050565b5f60208284031215610cb057610caf6108ff565b5b5f610cbd84828501610c87565b91505092915050565b7f4e6f7420746865206f776e6572000000000000000000000000000000000000005f82015250565b5f610cfa600d83610af8565b9150610d0582610cc6565b602082019050919050565b5f6020820190508181035f830152610d2781610cee565b905091905056fea264697066735822122067b40eb8b0c31bac146f237660b4d489bb99e9c9211ce282e91e5bcf289e4ad964736f6c634300081c0033","linkReferences":{}},"methodIdentifiers":{"getStakedERC721(address)":"350d95ec","setStakingContractAddress(address)":"1c1f8aa3","stakeERC721(address,uint256)":"4c23648d","stakingContractAddress()":"3535f48b","unstakeERC721(address,uint256)":"075b52c6"},"id":6}