{"abi":[{"type":"function","name":"getStakedERC721","inputs":[{"name":"user","type":"address","internalType":"address"}],"outputs":[{"name":"","type":"uint256[]","internalType":"uint256[]"}],"stateMutability":"view"},{"type":"function","name":"stakeERC721","inputs":[{"name":"token","type":"address","internalType":"address"},{"name":"tokenId","type":"uint256","internalType":"uint256"}],"outputs":[],"stateMutability":"nonpayable"},{"type":"function","name":"unstakeERC721","inputs":[{"name":"token","type":"address","internalType":"address"},{"name":"tokenId","type":"uint256","internalType":"uint256"}],"outputs":[],"stateMutability":"nonpayable"},{"type":"event","name":"Staked","inputs":[{"name":"user","type":"address","indexed":true,"internalType":"address"},{"name":"token","type":"address","indexed":true,"internalType":"address"},{"name":"tokenId","type":"uint256","indexed":true,"internalType":"uint256"}],"anonymous":false},{"type":"event","name":"Unstaked","inputs":[{"name":"user","type":"address","indexed":true,"internalType":"address"},{"name":"token","type":"address","indexed":true,"internalType":"address"},{"name":"tokenId","type":"uint256","indexed":true,"internalType":"uint256"}],"anonymous":false}],"bytecode":{"object":"0x6080604052348015600e575f5ffd5b50610c898061001c5f395ff3fe608060405234801561000f575f5ffd5b506004361061003f575f3560e01c8063075b52c614610043578063350d95ec1461005f5780634c23648d1461008f575b5f5ffd5b61005d600480360381019061005891906108ce565b6100ab565b005b6100796004803603810190610074919061090c565b6103d4565b60405161008691906109ee565b60405180910390f35b6100a960048036038101906100a491906108ce565b610475565b005b5f6100b4610738565b90505f6100c1338461073f565b9050816001015f3373ffffffffffffffffffffffffffffffffffffffff1673ffffffffffffffffffffffffffffffffffffffff1681526020019081526020015f20805490508110610147576040517f08c379a000000000000000000000000000000000000000000000000000000000815260040161013e90610a68565b60405180910390fd5b3073ffffffffffffffffffffffffffffffffffffffff1663372500ab6040518163ffffffff1660e01b81526004015f604051808303815f87803b15801561018c575f5ffd5b505af115801561019e573d5f5f3e3d5ffd5b50505050816001015f3373ffffffffffffffffffffffffffffffffffffffff1673ffffffffffffffffffffffffffffffffffffffff1681526020019081526020015f206001836001015f3373ffffffffffffffffffffffffffffffffffffffff1673ffffffffffffffffffffffffffffffffffffffff1681526020019081526020015f20805490506102309190610ab3565b8154811061024157610240610ae6565b5b905f5260205f200154826001015f3373ffffffffffffffffffffffffffffffffffffffff1673ffffffffffffffffffffffffffffffffffffffff1681526020019081526020015f20828154811061029b5761029a610ae6565b5b905f5260205f200181905550816001015f3373ffffffffffffffffffffffffffffffffffffffff1673ffffffffffffffffffffffffffffffffffffffff1681526020019081526020015f208054806102f6576102f5610b13565b5b600190038181905f5260205f20015f905590558373ffffffffffffffffffffffffffffffffffffffff166323b872dd3033866040518463ffffffff1660e01b815260040161034693929190610b5e565b5f604051808303815f87803b15801561035d575f5ffd5b505af115801561036f573d5f5f3e3d5ffd5b50505050828473ffffffffffffffffffffffffffffffffffffffff163373ffffffffffffffffffffffffffffffffffffffff167fd8654fcc8cf5b36d30b3f5e4688fc78118e6d68de60b9994e09902268b57c3e360405160405180910390a450505050565b60605f6103df610738565b9050806001015f8473ffffffffffffffffffffffffffffffffffffffff1673ffffffffffffffffffffffffffffffffffffffff1681526020019081526020015f2080548060200260200160405190810160405280929190818152602001828054801561046857602002820191905f5260205f20905b815481526020019060010190808311610454575b5050505050915050919050565b5f61047e610738565b90503373ffffffffffffffffffffffffffffffffffffffff168373ffffffffffffffffffffffffffffffffffffffff16636352211e846040518263ffffffff1660e01b81526004016104d09190610b93565b602060405180830381865afa1580156104eb573d5f5f3e3d5ffd5b505050506040513d601f19601f8201168201806040525081019061050f9190610bc0565b73ffffffffffffffffffffffffffffffffffffffff1614610565576040517f08c379a000000000000000000000000000000000000000000000000000000000815260040161055c90610c35565b60405180910390fd5b5f816001015f3373ffffffffffffffffffffffffffffffffffffffff1673ffffffffffffffffffffffffffffffffffffffff1681526020019081526020015f2080549050111561060b573073ffffffffffffffffffffffffffffffffffffffff1663372500ab6040518163ffffffff1660e01b81526004015f604051808303815f87803b1580156105f4575f5ffd5b505af1158015610606573d5f5f3e3d5ffd5b505050505b8273ffffffffffffffffffffffffffffffffffffffff166323b872dd3330856040518463ffffffff1660e01b815260040161064893929190610b5e565b5f604051808303815f87803b15801561065f575f5ffd5b505af1158015610671573d5f5f3e3d5ffd5b50505050806001015f3373ffffffffffffffffffffffffffffffffffffffff1673ffffffffffffffffffffffffffffffffffffffff1681526020019081526020015f2082908060018154018082558091505060019003905f5260205f20015f9091909190915055818373ffffffffffffffffffffffffffffffffffffffff163373ffffffffffffffffffffffffffffffffffffffff167f5dac0c1b1112564a045ba943c9d50270893e8e826c49be8e7073adc713ab7bd760405160405180910390a4505050565b5f5f905090565b5f5f610749610738565b90505f5f90505b816001015f8673ffffffffffffffffffffffffffffffffffffffff1673ffffffffffffffffffffffffffffffffffffffff1681526020019081526020015f20805490508110156108115783826001015f8773ffffffffffffffffffffffffffffffffffffffff1673ffffffffffffffffffffffffffffffffffffffff1681526020019081526020015f2082815481106107ec576107eb610ae6565b5b905f5260205f20015403610804578092505050610837565b8080600101915050610750565b507fffffffffffffffffffffffffffffffffffffffffffffffffffffffffffffffff9150505b92915050565b5f5ffd5b5f73ffffffffffffffffffffffffffffffffffffffff82169050919050565b5f61086a82610841565b9050919050565b61087a81610860565b8114610884575f5ffd5b50565b5f8135905061089581610871565b92915050565b5f819050919050565b6108ad8161089b565b81146108b7575f5ffd5b50565b5f813590506108c8816108a4565b92915050565b5f5f604083850312156108e4576108e361083d565b5b5f6108f185828601610887565b9250506020610902858286016108ba565b9150509250929050565b5f602082840312156109215761092061083d565b5b5f61092e84828501610887565b91505092915050565b5f81519050919050565b5f82825260208201905092915050565b5f819050602082019050919050565b6109698161089b565b82525050565b5f61097a8383610960565b60208301905092915050565b5f602082019050919050565b5f61099c82610937565b6109a68185610941565b93506109b183610951565b805f5b838110156109e15781516109c8888261096f565b97506109d383610986565b9250506001810190506109b4565b5085935050505092915050565b5f6020820190508181035f830152610a068184610992565b905092915050565b5f82825260208201905092915050565b7f546f6b656e206e6f74207374616b6564000000000000000000000000000000005f82015250565b5f610a52601083610a0e565b9150610a5d82610a1e565b602082019050919050565b5f6020820190508181035f830152610a7f81610a46565b9050919050565b7f4e487b71000000000000000000000000000000000000000000000000000000005f52601160045260245ffd5b5f610abd8261089b565b9150610ac88361089b565b9250828203905081811115610ae057610adf610a86565b5b92915050565b7f4e487b71000000000000000000000000000000000000000000000000000000005f52603260045260245ffd5b7f4e487b71000000000000000000000000000000000000000000000000000000005f52603160045260245ffd5b610b4981610860565b82525050565b610b588161089b565b82525050565b5f606082019050610b715f830186610b40565b610b7e6020830185610b40565b610b8b6040830184610b4f565b949350505050565b5f602082019050610ba65f830184610b4f565b92915050565b5f81519050610bba81610871565b92915050565b5f60208284031215610bd557610bd461083d565b5b5f610be284828501610bac565b91505092915050565b7f4e6f7420746865206f776e6572000000000000000000000000000000000000005f82015250565b5f610c1f600d83610a0e565b9150610c2a82610beb565b602082019050919050565b5f6020820190508181035f830152610c4c81610c13565b905091905056fea26469706673582212207d845f6f6e9f26f4dc25b51e0d84b64e9167362ae9e58efc700846289a7d9a7e64736f6c634300081c0033","linkReferences":{}},"methodIdentifiers":{"getStakedERC721(address)":"350d95ec","stakeERC721(address,uint256)":"4c23648d","unstakeERC721(address,uint256)":"075b52c6"},"id":6}