{"abi":[{"type":"function","name":"getStakedERC20","inputs":[{"name":"user","type":"address","internalType":"address"}],"outputs":[{"name":"","type":"uint256","internalType":"uint256"}],"stateMutability":"view"},{"type":"function","name":"getTotalStakedERC20","inputs":[],"outputs":[{"name":"","type":"uint256","internalType":"uint256"}],"stateMutability":"view"},{"type":"function","name":"stakeERC20","inputs":[{"name":"token","type":"address","internalType":"address"},{"name":"amount","type":"uint256","internalType":"uint256"}],"outputs":[],"stateMutability":"nonpayable"},{"type":"function","name":"unstakeERC20","inputs":[{"name":"token","type":"address","internalType":"address"},{"name":"amount","type":"uint256","internalType":"uint256"}],"outputs":[],"stateMutability":"nonpayable"},{"type":"event","name":"Staked","inputs":[{"name":"user","type":"address","indexed":true,"internalType":"address"},{"name":"token","type":"address","indexed":true,"internalType":"address"},{"name":"amount","type":"uint256","indexed":false,"internalType":"uint256"}],"anonymous":false},{"type":"event","name":"Unstaked","inputs":[{"name":"user","type":"address","indexed":true,"internalType":"address"},{"name":"token","type":"address","indexed":true,"internalType":"address"},{"name":"amount","type":"uint256","indexed":false,"internalType":"uint256"}],"anonymous":false}],"bytecode":{"object":"0x6080604052348015600e575f5ffd5b506109e68061001c5f395ff3fe608060405234801561000f575f5ffd5b506004361061004a575f3560e01c80638aa3b11c1461004e578063b51a3b9d1461007e578063c581af911461009c578063e46f4ead146100b8575b5f5ffd5b610068600480360381019061006391906106ae565b6100d4565b60405161007591906106f1565b60405180910390f35b610086610127565b60405161009391906106f1565b60405180910390f35b6100b660048036038101906100b19190610734565b61013e565b005b6100d260048036038101906100cd9190610734565b610379565b005b5f5f6100de610649565b9050805f015f8473ffffffffffffffffffffffffffffffffffffffff1673ffffffffffffffffffffffffffffffffffffffff1681526020019081526020015f2054915050919050565b5f5f610131610649565b9050806005015491505090565b5f610147610649565b905081815f015f3373ffffffffffffffffffffffffffffffffffffffff1673ffffffffffffffffffffffffffffffffffffffff1681526020019081526020015f205410156101ca576040517f08c379a00000000000000000000000000000000000000000000000000000000081526004016101c1906107cc565b60405180910390fd5b3073ffffffffffffffffffffffffffffffffffffffff1663372500ab6040518163ffffffff1660e01b81526004015f604051808303815f87803b15801561020f575f5ffd5b505af1158015610221573d5f5f3e3d5ffd5b5050505081815f015f3373ffffffffffffffffffffffffffffffffffffffff1673ffffffffffffffffffffffffffffffffffffffff1681526020019081526020015f205f8282546102729190610817565b9250508190555081816005015f82825461028c9190610817565b925050819055508273ffffffffffffffffffffffffffffffffffffffff1663a9059cbb33846040518363ffffffff1660e01b81526004016102ce929190610859565b6020604051808303815f875af11580156102ea573d5f5f3e3d5ffd5b505050506040513d601f19601f8201168201806040525081019061030e91906108b5565b508273ffffffffffffffffffffffffffffffffffffffff163373ffffffffffffffffffffffffffffffffffffffff167fd8654fcc8cf5b36d30b3f5e4688fc78118e6d68de60b9994e09902268b57c3e38460405161036c91906106f1565b60405180910390a3505050565b5f610382610649565b90505f816004015f3373ffffffffffffffffffffffffffffffffffffffff1673ffffffffffffffffffffffffffffffffffffffff1681526020019081526020015f20540361040f5742816004015f3373ffffffffffffffffffffffffffffffffffffffff1673ffffffffffffffffffffffffffffffffffffffff1681526020019081526020015f20819055505b5f8211610451576040517f08c379a00000000000000000000000000000000000000000000000000000000081526004016104489061092a565b60405180910390fd5b5f815f015f3373ffffffffffffffffffffffffffffffffffffffff1673ffffffffffffffffffffffffffffffffffffffff1681526020019081526020015f205411156104f3573073ffffffffffffffffffffffffffffffffffffffff1663372500ab6040518163ffffffff1660e01b81526004015f604051808303815f87803b1580156104dc575f5ffd5b505af11580156104ee573d5f5f3e3d5ffd5b505050505b8273ffffffffffffffffffffffffffffffffffffffff166323b872dd3330856040518463ffffffff1660e01b815260040161053093929190610948565b6020604051808303815f875af115801561054c573d5f5f3e3d5ffd5b505050506040513d601f19601f8201168201806040525081019061057091906108b5565b5081815f015f3373ffffffffffffffffffffffffffffffffffffffff1673ffffffffffffffffffffffffffffffffffffffff1681526020019081526020015f205f8282546105be919061097d565b9250508190555081816005015f8282546105d8919061097d565b925050819055508273ffffffffffffffffffffffffffffffffffffffff163373ffffffffffffffffffffffffffffffffffffffff167f5dac0c1b1112564a045ba943c9d50270893e8e826c49be8e7073adc713ab7bd78460405161063c91906106f1565b60405180910390a3505050565b5f5f905090565b5f5ffd5b5f73ffffffffffffffffffffffffffffffffffffffff82169050919050565b5f61067d82610654565b9050919050565b61068d81610673565b8114610697575f5ffd5b50565b5f813590506106a881610684565b92915050565b5f602082840312156106c3576106c2610650565b5b5f6106d08482850161069a565b91505092915050565b5f819050919050565b6106eb816106d9565b82525050565b5f6020820190506107045f8301846106e2565b92915050565b610713816106d9565b811461071d575f5ffd5b50565b5f8135905061072e8161070a565b92915050565b5f5f6040838503121561074a57610749610650565b5b5f6107578582860161069a565b925050602061076885828601610720565b9150509250929050565b5f82825260208201905092915050565b7f4e6f7420656e6f75676820746f6b656e73207374616b656400000000000000005f82015250565b5f6107b6601883610772565b91506107c182610782565b602082019050919050565b5f6020820190508181035f8301526107e3816107aa565b9050919050565b7f4e487b71000000000000000000000000000000000000000000000000000000005f52601160045260245ffd5b5f610821826106d9565b915061082c836106d9565b9250828203905081811115610844576108436107ea565b5b92915050565b61085381610673565b82525050565b5f60408201905061086c5f83018561084a565b61087960208301846106e2565b9392505050565b5f8115159050919050565b61089481610880565b811461089e575f5ffd5b50565b5f815190506108af8161088b565b92915050565b5f602082840312156108ca576108c9610650565b5b5f6108d7848285016108a1565b91505092915050565b7f43616e6e6f74207374616b65207a65726f20746f6b656e7300000000000000005f82015250565b5f610914601883610772565b915061091f826108e0565b602082019050919050565b5f6020820190508181035f83015261094181610908565b9050919050565b5f60608201905061095b5f83018661084a565b610968602083018561084a565b61097560408301846106e2565b949350505050565b5f610987826106d9565b9150610992836106d9565b92508282019050808211156109aa576109a96107ea565b5b9291505056fea26469706673582212205ddfe37b645686cfd65e106f4194a840ce137d31ad2fa2062e8a6033da30276c64736f6c634300081c0033","linkReferences":{}},"methodIdentifiers":{"getStakedERC20(address)":"8aa3b11c","getTotalStakedERC20()":"b51a3b9d","stakeERC20(address,uint256)":"e46f4ead","unstakeERC20(address,uint256)":"c581af91"},"id":5}