{"abi":[{"type":"function","name":"approve","inputs":[{"name":"to","type":"address","internalType":"address"},{"name":"tokenId","type":"uint256","internalType":"uint256"}],"outputs":[],"stateMutability":"nonpayable"},{"type":"function","name":"getApproved","inputs":[{"name":"tokenId","type":"uint256","internalType":"uint256"}],"outputs":[{"name":"","type":"address","internalType":"address"}],"stateMutability":"view"},{"type":"function","name":"isApprovedForAll","inputs":[{"name":"owner","type":"address","internalType":"address"},{"name":"operator","type":"address","internalType":"address"}],"outputs":[{"name":"","type":"bool","internalType":"bool"}],"stateMutability":"view"},{"type":"function","name":"mint","inputs":[{"name":"to","type":"address","internalType":"address"},{"name":"tokenId","type":"uint256","internalType":"uint256"}],"outputs":[],"stateMutability":"nonpayable"},{"type":"function","name":"operatorApprovals","inputs":[{"name":"","type":"address","internalType":"address"},{"name":"","type":"address","internalType":"address"}],"outputs":[{"name":"","type":"bool","internalType":"bool"}],"stateMutability":"view"},{"type":"function","name":"ownerOf","inputs":[{"name":"tokenId","type":"uint256","internalType":"uint256"}],"outputs":[{"name":"","type":"address","internalType":"address"}],"stateMutability":"view"},{"type":"function","name":"owners","inputs":[{"name":"","type":"uint256","internalType":"uint256"}],"outputs":[{"name":"","type":"address","internalType":"address"}],"stateMutability":"view"},{"type":"function","name":"safeTransferFrom","inputs":[{"name":"from","type":"address","internalType":"address"},{"name":"to","type":"address","internalType":"address"},{"name":"tokenId","type":"uint256","internalType":"uint256"}],"outputs":[],"stateMutability":"nonpayable"},{"type":"function","name":"setApprovalForAll","inputs":[{"name":"operator","type":"address","internalType":"address"},{"name":"approved","type":"bool","internalType":"bool"}],"outputs":[],"stateMutability":"nonpayable"},{"type":"function","name":"tokenApprovals","inputs":[{"name":"","type":"uint256","internalType":"uint256"}],"outputs":[{"name":"","type":"address","internalType":"address"}],"stateMutability":"view"},{"type":"function","name":"transferFrom","inputs":[{"name":"from","type":"address","internalType":"address"},{"name":"to","type":"address","internalType":"address"},{"name":"tokenId","type":"uint256","internalType":"uint256"}],"outputs":[],"stateMutability":"nonpayable"}],"bytecode":{"object":"0x6080604052348015600e575f5ffd5b506105258061001c5f395ff3fe608060405234801561000f575f5ffd5b50600436106100a6575f3560e01c806340c10f191161006e57806340c10f19146101a457806342842e0e146101df5780636352211e146101f2578063a22cb4651461021a578063acdeb5b91461025f578063e985e9c514610287575f5ffd5b8063025e7c27146100aa578063081812fc146100ef578063095ea7b3146101175780630d95e0541461015457806323b872dd14610191575b5f5ffd5b6100d26100b83660046103f1565b5f602081905290815260409020546001600160a01b031681565b6040516001600160a01b0390911681526020015b60405180910390f35b6100d26100fd3660046103f1565b5f908152600260205260409020546001600160a01b031690565b610152610125366004610423565b5f90815260026020526040902080546001600160a01b0319166001600160a01b0392909216919091179055565b005b61018161016236600461044b565b600160209081525f928352604080842090915290825290205460ff1681565b60405190151581526020016100e6565b61015261019f36600461047c565b6102c2565b6101526101b2366004610423565b5f90815260208190526040902080546001600160a01b0319166001600160a01b0392909216919091179055565b6101526101ed36600461047c565b6103e1565b6100d26102003660046103f1565b5f908152602081905260409020546001600160a01b031690565b6101526102283660046104b6565b335f9081526001602090815260408083206001600160a01b0395909516835293905291909120805460ff1916911515919091179055565b6100d261026d3660046103f1565b60026020525f90815260409020546001600160a01b031681565b61018161029536600461044b565b6001600160a01b039182165f90815260016020908152604080832093909416825291909152205460ff1690565b5f818152602081905260409020546001600160a01b0384811691161461031f5760405162461bcd60e51b815260206004820152600d60248201526c2737ba103a34329037bbb732b960991b60448201526064015b60405180910390fd5b336001600160a01b038416148061034b57505f818152600260205260409020546001600160a01b031633145b8061037857506001600160a01b0383165f90815260016020908152604080832033845290915290205460ff165b6103b35760405162461bcd60e51b815260206004820152600c60248201526b139bdd08185c1c1c9bdd995960a21b6044820152606401610316565b5f90815260208190526040902080546001600160a01b0319166001600160a01b039290921691909117905550565b6103ec8383836102c2565b505050565b5f60208284031215610401575f5ffd5b5035919050565b80356001600160a01b038116811461041e575f5ffd5b919050565b5f5f60408385031215610434575f5ffd5b61043d83610408565b946020939093013593505050565b5f5f6040838503121561045c575f5ffd5b61046583610408565b915061047360208401610408565b90509250929050565b5f5f5f6060848603121561048e575f5ffd5b61049784610408565b92506104a560208501610408565b929592945050506040919091013590565b5f5f604083850312156104c7575f5ffd5b6104d083610408565b9150602083013580151581146104e4575f5ffd5b80915050925092905056fea2646970667358221220849f9d7a714b50b6a4e0671ee6b36260a5eeb746dd7e0a71aaba9a644b6d0ec164736f6c634300081c0033","linkReferences":{}},"methodIdentifiers":{"approve(address,uint256)":"095ea7b3","getApproved(uint256)":"081812fc","isApprovedForAll(address,address)":"e985e9c5","mint(address,uint256)":"40c10f19","operatorApprovals(address,address)":"0d95e054","ownerOf(uint256)":"6352211e","owners(uint256)":"025e7c27","safeTransferFrom(address,address,uint256)":"42842e0e","setApprovalForAll(address,bool)":"a22cb465","tokenApprovals(uint256)":"acdeb5b9","transferFrom(address,address,uint256)":"23b872dd"},"id":39}